775770          11042015052025010000EFECAJ                                  +000000015670000000001695507806986149101089428141015124853825295297          
775770          11022015052025010000EFEX                                    +000000000121200000001695507806986149101017253061015181568525211278          
775770          01072015052025010000NO_DEFINIDO                             +000000000001000000001695507806986149101017253061015181568525211278          
775770          01172015052025010000EFE                                     +000000000005000000001695507806986149111047951061015183267825215226          
775770          11042015052025010000DEPENEFECTIV                            +000000000001000000001695507806986149101017253061015181568525211278          
