0153512495      12012015070551140000EFE                                     +000000000047000000000000000000000000101071406261115202396625735280          
0153512495      12012015070510470000EFE                                     +000000000047000000000000000000000000101092245301115123545725775282          
0153512495      12012015070510830000EFE                                     +000000000047000000000000000000000000101096726011215102098525785275          
0153512495      12012015070510700000EFE                                     +000000000047000000000000000000000000107090055011215142078025785204          
0153512495      12012015070510470000EFE                                     +000000000115000000000000000000000000101130506301115100884025775250          
0153512495      12012015070510470000EFE                                     +000000000115000000000000000000000000101128212301115100687225775278          
0153512495      12012015070510150000EFE                                     +000000000115000000000000000000000000107102532301115212049825775215          
0153512495      12012015070510180000EFE                                     +000000000115000000000000000000000000101127165271115162777425745260          
0153512495      12012015070510400000EFE                                     +000000000115000000000000000000000000101126747301115122442725775266          
0153512495      12012015070510090000EFE                                     +000000000115000000000000000000000000113061176271115215297825745240          
0153512495      12012015070510750000EFE                                     +000000000115000000000000000000000000101076047011215083574325785272          
0153512495      12012015070504040000EFE                                     +000000000115000000000000000000000000110079396301115124750125775272          
0153512495      12012015070510210000EFE                                     +000000000115000000000000000000000000101104134301115160803025775202          
0153512495      12012015070510210000EFE                                     +000000000115000000000000000000000000101104134301115160903125775238          
0153512495      12012015070510410000EFE                                     +000000000115000000000000000000000000101079542011215124354225785223          
0153512495      12012015070538790000EFE                                     +000000000115000000000000000000000000101128948011215094789925785238          
0153512495      12012015070538790000EFE                                     +000000000115000000000000000000000000101128948011215094483825785248          
0153512495      12012015070504150000EFE                                     +000000000115000000000000000000000000101106817011215132966725785236          
0153512495      12012015070504150000EFE                                     +000000000115000000000000000000000000101105340301115111816025775277          
0153512495      12012015070510460000EFE                                     +000000000115000000000000000000000000101069739011215113627925785219          
0153512495      12012015070510520000EFE                                     +000000000115000000000000000000000000101040126011215130757925785234          
0153512495      12012015070510860000EFE                                     +000000000115000000000000000000000000113126507301115194238325775232          
0153512495      12012015070504160000EFE                                     +000000000115000000000000000000000000110117455011215142986925785297          
0153512495      12012015070510290000EFE                                     +000000000115000000000000000000000000101077880011215143889425785233          
0153512495      12012015070538740000EFE                                     +000000000115000000000000000000000000110011156301115143281225775230          
0153512495      12012015070510810000EFE                                     +000000000115000000000000000000000000101122834011215141382825785297          
0153512495      12012015070510810000EFE                                     +000000000115000000000000000000000000101122834301115222950925775274          
0153512495      12012015070505950000EFE                                     +000000000167000000000000000000000000101078167011215100381725782253          
0153512495      12012015070510710000EFE                                     +000000000167000000000000000000000000111078051261115113639625732274          
0153512495      12012015070504180000EFE                                     +000000000167000000000000000000000000101078108011215102400925782209          
0153512495      12012015070510010000EFE                                     +000000000188000000000000000000000000107133024301115213453325747286          
0153512495      12012015070510410000EFE                                     +000000000203000000000000000000000000113047743301115213955725779202          
0153512495      12012015070510290000EFE                                     +000000000230000000000000000000000000101073220011215091280625787293          
0153512495      12012015070504160000EFE                                     +000000000230000000000000000000000000110117455011215142885525787231          
0153512495      12012015070504090000EFE                                     +000000000230000000000000000000000000101094100011215154602925787227          
0153512495      12012015070510610000EFE                                     +000000000300000000000000000000000000101074856011215082171325789228          
0153512495      12012015070510470000EFE                                     +000000000300000000000000000000000000101013597011215133569025789258          
0153512495      12012015070507170000EFE                                     +000000000345000000000000000000000000101102393301115124441425772289          
0153512495      12012015070510600000EFE                                     +000000000354000000000000000000000000103102841011215110214325788219          
0153512495      12012015070510600000EFE                                     +000000000354000000000000000000000000103101715011215110114025788283          
0153512495      12012015070510860000EFE                                     +000000000368080000000000000000000000112125417271115181488625745288          
0153512495      12012015070510830000EFE                                     +000000000379080000000000000000000000112096202011215111019825783291          
0153512495      12012015070510830000EFE                                     +000000000379080000000000000000000000112096556011215110916225783253          
0153512495      12012015070504780000EFE                                     +000000000460000000000000000000000000101066627011215112321825784278          
0153512495      12012015070510600000EFE                                     +000000000469000000000000000000000000103127882011215091582325743251          
0153512495      12012015070510760000EFE                                     +000000000469000000000000000000000000103132345011215104007625743226          
0153512495      12012015070510140000EFE                                     +000000000469000000000000000000000000107123843011215105713425743287          
0153512495      12012015070510140000EFE                                     +000000000469000000000000000000000000107109954301115204850225743261          
0153512495      12012015070510150000EFE                                     +000000000469000000000000000000000000107122677011215122145125743276          
0153512495      12012015070510030000EFE                                     +000000000469000000000000000000000000103074350011215130757825743292          
0153512495      12012015070510600000EFE                                     +000000000469000000000000000000000000103132356011215135879425743247          
0153512495      12012015070510110000EFE                                     +000000000469000000000000000000000000103080239011215135975525743287          
0153512495      12012015070510440000EFE                                     +000000000528000000000000000000000000107240381301115181925025777275          
0153512495      12012015070510460000EFE                                     +000000000688000000000000000000000000107133418261115130654725732220          
0153512495      12012015070510600000EFE                                     +000000000756000000000000000000000000103240371271115102825525742250          
0153512495      12012015070504780000EFE                                     +000000000784000000000000000000000000108058079291115224148025761251          
0153512495      12012015070510440000EFE                                     +000000000790000000000000000000000000103131170301115161103225774239          
0153512495      12012015070510040000EFE                                     +000000000790000000000000000000000000107104734301115122339025774250          
0153512495      12012015070510760000EFE                                     +000000000849000000000000000000000000110101027011215085277025781261          
0153512495      12012015070504090000EFE                                     +000000000849000000000000000000000000110126513011215130060725781247          
0153512495      12012015070538910000EFE                                     +000000000869000000000000000000000000103130784301115132258625775255          
0153512495      12012015070510600000EFE                                     +000000000890000000000000000000000000101093115301115172318425777242          
0153512495      12012015070506290000EFE                                     +000000000895000000000000000000000000105118330261115185485825732231          
0153512495      12012015070510700000EFE                                     +000000000895000000000000000000000000107127502261115155673025732241          
0153512495      12012015070505960000EFE                                     +000000000895000000000000000000000000107089705011215143586025782252          
0153512495      12012015070510010000EFE                                     +000000000895000000000000000000000000107115976011215145092025782252          
0153512495      12012015070510290000EFE                                     +000000000934000000000000000000000000110080253281115132420125752212          
0153512495      12012015070510690000EFE                                     +000000000934000000000000000000000000110072308301115213553425772292          
0153512495      12012015070510440000EFE                                     +000000000995000000000000000000000000107072971271115121040625745253          
0153512495      12012015070510700000EFE                                     +000000001010000000000000000000000000107090132011215133467925788239          
0153512495      12012015070552930000EFE                                     +000000001062000000000000000000000000112105672301115132258525775202          
0153512495      12012015070510860000EFE                                     +000000001062000000000000000000000000112090041291115215846325765234          
0153512495      12012015070538730000EFE                                     +000000001080000000000000000000000000113121700281115125616225757242          
0153512495      12012015070547550000EFE                                     +000000001106000000000000000000000000101071127261115204895925730283          
0153512495      12012015070539080000EFE                                     +000000001106000000000000000000000000101108948011215111722325780286          
0153512495      12012015070510140000EFE                                     +000000001106000000000000000000000000101124540301115204445925770264          
0153512495      12012015070504780000EFE                                     +000000001176000000000000000000000000108054624291115224549925769227          
0153512495      12012015070504440000EFE                                     +000000001246800000000000000000000000101047134271115145164025745257          
0153512495      12012015070510250000EFE                                     +000000001383000000000000000000000000101070476301115212354125779215          
0153512495      12012015070538880000EFE                                     +000000001383000000000000000000000000101114985301115112519525779238          
0153512495      12012015070510580000EFE                                     +000000001383000000000000000000000000101115788301115105908925779232          
0153512495      12012015070512620000EFE                                     +000000001383000000000000000000000000101130661011215102702025789261          
0153512495      12012015070538810000EFE                                     +000000001383000000000000000000000000101073828011215113217825789237          
0153512495      12012015070547550000EFE                                     +000000001383000000000000000000000000101072657011215124951525789227          
0153512495      12012015070538700000EFE                                     +000000001383000000000000000000000000101096794011215091179925789210          
0153512495      12012015070510600000EFE                                     +000000001396000000000000000000000000101080195011215135174725789294          
0153512495      12012015070510680000EFE                                     +000000001414000000000000000000000000101103968011215110319025784233          
0153512495      12012015070504160000EFE                                     +000000001414000000000000000000000000101073562301115114929925774289          
0153512495      12012015070506280000EFE                                     +000000001414000000000000000000000000101114615011215075368325784242          
0153512495      12012015070510580000EFE                                     +000000001414000000000000000000000000101066978281115151119725754201          
0153512495      12012015070510460000EFE                                     +000000001474000000000000000000000000110111629011215101391625786278          
0153512495      12012015070510830000EFE                                     +000000001487200000000000000000000000112115992301115200140925772267          
0153512495      12012015070539080000EFE                                     +000000001521000000000000000000000000101077973301115143181025771206          
0153512495      12012015070546460000EFE                                     +000000001521000000000000000000000000101089426011215081668025781211          
0153512495      12012015070510020000FTDC                                    +000000001521000000000000000000000000101102535301115201339825771289          
0153512495      12012015070551310000EFE                                     +000000001541000000000000000000000000101103914011215094183725785209          
0153512495      12012015070538700000EFE                                     +000000001555000000000000000000000000101074160271115141660925746240          
0153512495      12012015070510670000EFE                                     +000000001555000000000000000000000000101069869301115174720925776283          
0153512495      12012015070510760000EFE                                     +000000001567000000000000000000000000101083065011215085477125785240          
0153512495      12012015070510530000EFE                                     +000000001567000000000000000000000000101127108011215115231125785226          
0153512495      12012015070538930000EFE                                     +000000001567000000000000000000000000101074069301115113324425775213          
0153512495      12012015070510190000EFE                                     +000000001568000000000000000000000000108084993011215081169825786250          
0153512495      12012015070510570000EFE                                     +000000001568000000000000000000000000108129365291115142237125766222          
0153512495      12012015070510190000EFE                                     +000000001568000000000000000000000000108129964011215135677325786265          
0153512495      12012015070504270000EFE                                     +000000001580000000000000000000000000105127984301115104502625772219          
0153512495      12012015070510610000EFE                                     +000000001582000000000000000000000000111052682011215133267225784269          
0153512495      12012015070547610000EFE                                     +000000001590000000000000000000000000113072884011215114230225789275          
0153512495      12012015070510460000EFE                                     +000000001602000000000000000000000000101039721301115171013425771275          
0153512495      12012015070510710000EFE                                     +000000001602000000000000000000000000101092635271115200092025741213          
0153512495      12012015070504120000EFE                                     +000000001602000000000000000000000000101116675301115145483625771211          
0153512495      12012015070510250000EFE                                     +000000001602000000000000000000000000101107453301115112013325771264          
0153512495      12012015070510670000EFE                                     +000000001602000000000000000000000000101127537011215103002325781238          
0153512495      12012015070530190000EFE                                     +000000001602000000000000000000000000101093980011215114830725781218          
0153512495      12012015070538640000EFE                                     +000000001602000000000000000000000000101069265011215130356925781201          
0153512495      12012015070551360000EFE                                     +000000001621000000000000000000000000110118132261115124052425734282          
0153512495      12012015070551360000EFE                                     +000000001654000000000000000000000000113132467011215125156125788235          
0153512495      12012015070547610000EFE                                     +000000001670000000000000000000000000101240379301115170513325778265          
0153512495      12012015070510410000EFE                                     +000000001670000000000000000000000000110118819301115141678525778251          
0153512495      12012015070504420000EFE                                     +000000001670000000000000000000000000110092904281115132916525758264          
0153512495      12012015070510600000EFE                                     +000000001670000000000000000000000000110068599281115105709225758218          
0153512495      12012015070538790000EFE                                     +000000001682000000000000000000000000101128992011215134974625787217          
0153512495      12012015070509980000FEFE                                    +000000001690000000000000000000000000112082488011215133267325782242          
0153512495      12012015070506720000EFE                                     +000000001707000000000000000000000000112117291271115110629925749262          
0153512495      12012015070510320000EFE                                     +000000001725000000000000000000000000108070759301115134766425771295          
0153512495      12012015070510610000EFE                                     +000000001746000000000000000000000000101081249301115205048625776287          
0153512495      12012015070538700000EFE                                     +000000001750000000000000000000000000101236198301115162204825777214          
0153512495      12012015070505960000EFE                                     +000000001779000000000000000000000000101107082301115222660125770201          
0153512495      12012015070510440000EFE                                     +000000001779000000000000000000000000101100909011215102699925780240          
0153512495      12012015070504250000EFE                                     +000000001780000000000000000000000000101082807301115183819825778262          
0153512495      12012015070510580000EFE                                     +000000001785000000000000000000000000113123076011215125451825783276          
0153512495      12012015070547550000EFE                                     +000000001904000000000000000000000000101071127261115221001325732286          
0153512495      12012015070510610000EFE                                     +000000001904000000000000000000000000101074856301115202344025772274          
0153512495      12012015070538810000EFE                                     +000000001904000000000000000000000000101073828011215113427025782204          
0153512495      12012015070504050000EFE                                     +000000001904000000000000000000000000101074543301115190132225772257          
0153512495      12012015070504150000EFE                                     +000000001904000000000000000000000000101069451011215104402725782267          
0153512495      12012015070538680000EFE                                     +000000001904000000000000000000000000113068929301115195242225772218          
0153512495      12012015070510440000EFE                                     +000000001924000000000000000000000000110126675011215143790225786248          
0153512495      12012015070510830000EFE                                     +000000001930000000000000000000000000112119458011215132063925789262          
0153512495      12012015070510580000EFE                                     +000000001937000000000000000000000000113089452011215125151725786267          
0153512495      12012015070506280000EFE                                     +000000001937000000000000000000000000113127058011215075868725786284          
0153512495      12012015070504370000EFE                                     +000000001937000000000000000000000000113108270011215093287025786214          
0153512495      12012015070504270000EFE                                     +000000001937000000000000000000000000113116485011215121440025786203          
0153512495      12012015070512250000EFE                                     +000000001957000000000000000000000000101066657301115142677125770291          
0153512495      12012015070507170000EFE                                     +000000001957000000000000000000000000101102393301115124641825770264          
0153512495      12012015070504090000EFE                                     +000000002016000000000000000000000000101073322011215123650725785225          
0153512495      12012015070546430000EFE                                     +000000002193000000000000000000000000113131123281115173625525751280          
0153512495      12012015070538680000EFE                                     +000000002236000000000000000000000000111082079011215054363125785276          
0153512495      12012015070510320000EFE                                     +000000002366000000000000000000000000101116910011215123949725789267          
0153512495      12012015070510580000EFE                                     +000000002448000000000000000000000000113127508011215132765725780268          
0153512495      12012015070510670000EFE                                     +000000002475800000000000000000000000110064517301115184627325772233          
0153512495      12012015070510760000EFE                                     +000000002568000000000000000000000000101116563011215112824125787259          
0153512495      12012015070510410000EFE                                     +000000002766000000000000000000000000101116348011215111115525781223          
0153512495      12012015070538880000EFE                                     +000000002828000000000000000000000000101128822271115134654725748204          
0153512495      12012015070504240000EFE                                     +000000002904000000000000000000000000101078747271115194993125743269          
0153512495      12012015070510520000EFE                                     +000000003042000000000000000000000000101082474261115141867825733252          
0153512495      12012015070504370000EFE                                     +000000003088000000000000000000000000101093271301115200439225777282          
0153512495      12012015070510290000EFE                                     +000000003088000000000000000000000000101072649301115141978925777256          
0153512495      12012015070510270000EFE                                     +000000003134000000000000000000000000101104285011215150698025781232          
0153512495      12012015070552930000EFE                                     +000000003144000000000000000000000000110083303011215123749325788294          
0153512495      12012015070510710000EFE                                     +000000003331000000000000000000000000111076599301115192834925774249          
0153512495      12012015070505960000EFE                                     +000000003344000000000000000000000000107121250011215091180425784295          
0153512495      12012015070557710000PEFE                                    +000000003390000000000000000000000000101107905291115225350825765226          
0153512495      12012015070510580000EFE                                     +000000003568000000000000000000000000113128487011215121541025788271          
0153512495      12012015070510440000EFE                                     +000000003792000000000000000000000000110093858011215143989825789289          
0153512495      12012015070510680000EFE                                     +000000003795000000000000000000000000101068479011215142286425782233          
0153512495      12012015070504090000EFE                                     +000000004147000000000000000000000000101082465301115111617325772282          
0153512495      12012015070510750000EFE                                     +000000004326000000000000000000000000113092294011215081167625783220          
0153512495      12012015070510190000EFE                                     +000000004483000000000000000000000000101053656301115122135725775284          
0153512495      12012015070538640000EFE                                     +000000004806000000000000000000000000101077424011215093583525784278          
0153512495      12012015070504040000EFE                                     +000000005281830000000000000000000000112112723301115112919925773253          
0153512495      12012015070510350000EFE                                     +000000005759000000000000000000000000101066048261115132560125730260          
0153512495      12012015070510700000EFE                                     +000000006361000000000000000000000000101069035011215092585625788266          
0153512495      12012015070547550000EFE                                     +000000006521000000000000000000000000113125917011215093988525786242          
0153512495      12012015070510400000EFE                                     +000000006561000000000000000000000000110080890301115151289425774289          
0153512495      12012015070510620000EFE                                     +000000006708000000000000000000000000111071394011215110003825785209          
0153512495      12012015070510440000EFE                                     +000000007869000000000000000000000000101067838011215142485125782288          
0153512495      12012015070510830000EFE                                     +000000008196000000000000000000000000112108549011215133367625780243          
