00028           0000                                        +8000000000000000000000000          
20016           11052015140001660000VENTANILLA*0000                         +000000000004000000000000000000000000101017257041115135613225504209          
20016           11052015135901660000VENTANILLA*0000                         +000000000001000000000000000000000000101017259041115140013925501224          
20016           11052015140201660000VENTANILLA*0000                         +000000000005000000000000000000000000101018571041115135913725505296          
20016           11052015135601660000VENTANILLA*0000                         +000000000003000000000000000000000000101018830041115135916125503215          
20016           11052015135801660000VENTANILLA*0000                         +000000000002000000000000000000000000101023334041115135809825502263          
20016           11052015135401660000VENTANILLA*0000                         +000000001383000000000000000000000000101090977051115100547925479248          
40000           0000VENTANILLA                              +0000000000000000000000000000000000000000139800          
