0153512495      11102015052025010000EFE                                     +000000000475000000001695507806986149101001176091115144358325536246          
0153512495      11102015052025010000EFE                                     +000000000000150000001695507806986149101090977101115122735325566205          
0153512495      11102015052025010000EFE                                     +000000000001000000001695507806986149101017259101115122233225561266          
0153512495      11102015052025010000EFE                                     +000000000000150000001695507806986149101018830101115122334725566205          
